{
	"contracts/loops.sol": {
		"loops": {
			"abi": [
				{
					"inputs": [
						{
							"internalType": "uint256",
							"name": "_num",
							"type": "uint256"
						}
					],
					"name": "dowhileloop",
					"outputs": [
						{
							"internalType": "uint256",
							"name": "",
							"type": "uint256"
						}
					],
					"stateMutability": "pure",
					"type": "function"
				},
				{
					"inputs": [
						{
							"internalType": "uint256",
							"name": "_num",
							"type": "uint256"
						}
					],
					"name": "forLoop",
					"outputs": [
						{
							"internalType": "uint256",
							"name": "",
							"type": "uint256"
						}
					],
					"stateMutability": "pure",
					"type": "function"
				},
				{
					"inputs": [
						{
							"internalType": "uint256",
							"name": "_num",
							"type": "uint256"
						}
					],
					"name": "whileLoop",
					"outputs": [
						{
							"internalType": "uint256",
							"name": "",
							"type": "uint256"
						}
					],
					"stateMutability": "pure",
					"type": "function"
				}
			],
			"devdoc": {
				"kind": "dev",
				"methods": {},
				"version": 1
			},
			"evm": {
				"assembly": "    /* \"contracts/loops.sol\":76:860  contract loops {... */\n  mstore(0x40, 0x80)\n  callvalue\n  dup1\n  iszero\n  tag_1\n  jumpi\n  revert(0x00, 0x00)\ntag_1:\n  pop\n  dataSize(sub_0)\n  dup1\n  dataOffset(sub_0)\n  0x00\n  codecopy\n  0x00\n  return\nstop\n\nsub_0: assembly {\n        /* \"contracts/loops.sol\":76:860  contract loops {... */\n      mstore(0x40, 0x80)\n      callvalue\n      dup1\n      iszero\n      tag_1\n      jumpi\n      revert(0x00, 0x00)\n    tag_1:\n      pop\n      jumpi(tag_2, lt(calldatasize, 0x04))\n      shr(0xe0, calldataload(0x00))\n      dup1\n      0x456901e4\n      eq\n      tag_3\n      jumpi\n      dup1\n      0x5a5e80e7\n      eq\n      tag_4\n      jumpi\n      dup1\n      0x7c9052de\n      eq\n      tag_5\n      jumpi\n    tag_2:\n      revert(0x00, 0x00)\n        /* \"contracts/loops.sol\":119:321  function forLoop(uint _num) public pure returns(uint) {... */\n    tag_3:\n      tag_6\n      0x04\n      dup1\n      calldatasize\n      sub\n      dup2\n      add\n      swap1\n      tag_7\n      swap2\n      swap1\n      tag_8\n      jump\t// in\n    tag_7:\n      tag_9\n      jump\t// in\n    tag_6:\n      mload(0x40)\n      tag_10\n      swap2\n      swap1\n      tag_11\n      jump\t// in\n    tag_10:\n      mload(0x40)\n      dup1\n      swap2\n      sub\n      swap1\n      return\n        /* \"contracts/loops.sol\":350:582  function whileLoop(uint _num) public pure returns (uint){... */\n    tag_4:\n      tag_12\n      0x04\n      dup1\n      calldatasize\n      sub\n      dup2\n      add\n      swap1\n      tag_13\n      swap2\n      swap1\n      tag_8\n      jump\t// in\n    tag_13:\n      tag_14\n      jump\t// in\n    tag_12:\n      mload(0x40)\n      tag_15\n      swap2\n      swap1\n      tag_11\n      jump\t// in\n    tag_15:\n      mload(0x40)\n      dup1\n      swap2\n      sub\n      swap1\n      return\n        /* \"contracts/loops.sol\":612:851  function dowhileloop(uint _num) public pure returns (uint) {... */\n    tag_5:\n      tag_16\n      0x04\n      dup1\n      calldatasize\n      sub\n      dup2\n      add\n      swap1\n      tag_17\n      swap2\n      swap1\n      tag_8\n      jump\t// in\n    tag_17:\n      tag_18\n      jump\t// in\n    tag_16:\n      mload(0x40)\n      tag_19\n      swap2\n      swap1\n      tag_11\n      jump\t// in\n    tag_19:\n      mload(0x40)\n      dup1\n      swap2\n      sub\n      swap1\n      return\n        /* \"contracts/loops.sol\":119:321  function forLoop(uint _num) public pure returns(uint) {... */\n    tag_9:\n        /* \"contracts/loops.sol\":167:171  uint */\n      0x00\n        /* \"contracts/loops.sol\":184:192  uint sum */\n      0x00\n        /* \"contracts/loops.sol\":208:218  uint count */\n      0x00\n        /* \"contracts/loops.sol\":219:220  0 */\n      0x00\n        /* \"contracts/loops.sol\":208:220  uint count=0 */\n      swap1\n      pop\n        /* \"contracts/loops.sol\":203:287  for (uint count=0; count<_num; count++){... */\n    tag_21:\n        /* \"contracts/loops.sol\":228:232  _num */\n      dup4\n        /* \"contracts/loops.sol\":222:227  count */\n      dup2\n        /* \"contracts/loops.sol\":222:232  count<_num */\n      lt\n        /* \"contracts/loops.sol\":203:287  for (uint count=0; count<_num; count++){... */\n      iszero\n      tag_22\n      jumpi\n        /* \"contracts/loops.sol\":266:271  count */\n      dup1\n        /* \"contracts/loops.sol\":262:265  sum */\n      dup3\n        /* \"contracts/loops.sol\":262:271  sum+count */\n      tag_24\n      swap2\n      swap1\n      tag_25\n      jump\t// in\n    tag_24:\n        /* \"contracts/loops.sol\":257:271  sum= sum+count */\n      swap2\n      pop\n        /* \"contracts/loops.sol\":234:241  count++ */\n      dup1\n      dup1\n      0x01\n      add\n      swap2\n      pop\n      pop\n        /* \"contracts/loops.sol\":203:287  for (uint count=0; count<_num; count++){... */\n      jump(tag_21)\n    tag_22:\n      pop\n        /* \"contracts/loops.sol\":310:313  sum */\n      dup1\n        /* \"contracts/loops.sol\":303:313  return sum */\n      swap2\n      pop\n      pop\n        /* \"contracts/loops.sol\":119:321  function forLoop(uint _num) public pure returns(uint) {... */\n      swap2\n      swap1\n      pop\n      jump\t// out\n        /* \"contracts/loops.sol\":350:582  function whileLoop(uint _num) public pure returns (uint){... */\n    tag_14:\n        /* \"contracts/loops.sol\":401:405  uint */\n      0x00\n        /* \"contracts/loops.sol\":417:425  uint sum */\n      0x00\n        /* \"contracts/loops.sol\":436:446  uint count */\n      0x00\n        /* \"contracts/loops.sol\":459:554  while (count < _num) ... */\n    tag_27:\n        /* \"contracts/loops.sol\":474:478  _num */\n      dup4\n        /* \"contracts/loops.sol\":466:471  count */\n      dup2\n        /* \"contracts/loops.sol\":466:478  count < _num */\n      lt\n        /* \"contracts/loops.sol\":459:554  while (count < _num) ... */\n      iszero\n      tag_28\n      jumpi\n        /* \"contracts/loops.sol\":515:520  count */\n      dup1\n        /* \"contracts/loops.sol\":511:514  sum */\n      dup3\n        /* \"contracts/loops.sol\":511:520  sum+count */\n      tag_29\n      swap2\n      swap1\n      tag_25\n      jump\t// in\n    tag_29:\n        /* \"contracts/loops.sol\":505:520  sum = sum+count */\n      swap2\n      pop\n        /* \"contracts/loops.sol\":535:542  count++ */\n      dup1\n      dup1\n      tag_30\n      swap1\n      tag_31\n      jump\t// in\n    tag_30:\n      swap2\n      pop\n      pop\n        /* \"contracts/loops.sol\":459:554  while (count < _num) ... */\n      jump(tag_27)\n    tag_28:\n        /* \"contracts/loops.sol\":571:574  sum */\n      dup2\n        /* \"contracts/loops.sol\":564:574  return sum */\n      swap3\n      pop\n      pop\n      pop\n        /* \"contracts/loops.sol\":350:582  function whileLoop(uint _num) public pure returns (uint){... */\n      swap2\n      swap1\n      pop\n      jump\t// out\n        /* \"contracts/loops.sol\":612:851  function dowhileloop(uint _num) public pure returns (uint) {... */\n    tag_18:\n        /* \"contracts/loops.sol\":665:669  uint */\n      0x00\n        /* \"contracts/loops.sol\":682:690  uint sum */\n      0x00\n        /* \"contracts/loops.sol\":701:711  uint count */\n      0x00\n        /* \"contracts/loops.sol\":724:821  do {... */\n    tag_33:\n        /* \"contracts/loops.sol\":752:757  count */\n      dup1\n        /* \"contracts/loops.sol\":748:751  sum */\n      dup3\n        /* \"contracts/loops.sol\":748:757  sum+count */\n      tag_36\n      swap2\n      swap1\n      tag_25\n      jump\t// in\n    tag_36:\n        /* \"contracts/loops.sol\":742:757  sum = sum+count */\n      swap2\n      pop\n        /* \"contracts/loops.sol\":772:779  count++ */\n      dup1\n      dup1\n      tag_37\n      swap1\n      tag_31\n      jump\t// in\n    tag_37:\n      swap2\n      pop\n      pop\n        /* \"contracts/loops.sol\":815:819  _num */\n      dup4\n        /* \"contracts/loops.sol\":809:814  count */\n      dup2\n        /* \"contracts/loops.sol\":809:819  count<_num */\n      lt\n        /* \"contracts/loops.sol\":724:821  do {... */\n      tag_33\n      jumpi\n        /* \"contracts/loops.sol\":840:843  sum */\n      dup2\n        /* \"contracts/loops.sol\":833:843  return sum */\n      swap3\n      pop\n      pop\n      pop\n        /* \"contracts/loops.sol\":612:851  function dowhileloop(uint _num) public pure returns (uint) {... */\n      swap2\n      swap1\n      pop\n      jump\t// out\n        /* \"#utility.yul\":88:205   */\n    tag_39:\n        /* \"#utility.yul\":197:198   */\n      0x00\n        /* \"#utility.yul\":194:195   */\n      0x00\n        /* \"#utility.yul\":187:199   */\n      revert\n        /* \"#utility.yul\":334:411   */\n    tag_41:\n        /* \"#utility.yul\":371:378   */\n      0x00\n        /* \"#utility.yul\":400:405   */\n      dup2\n        /* \"#utility.yul\":389:405   */\n      swap1\n      pop\n        /* \"#utility.yul\":334:411   */\n      swap2\n      swap1\n      pop\n      jump\t// out\n        /* \"#utility.yul\":417:539   */\n    tag_42:\n        /* \"#utility.yul\":490:514   */\n      tag_52\n        /* \"#utility.yul\":508:513   */\n      dup2\n        /* \"#utility.yul\":490:514   */\n      tag_41\n      jump\t// in\n    tag_52:\n        /* \"#utility.yul\":483:488   */\n      dup2\n        /* \"#utility.yul\":480:515   */\n      eq\n        /* \"#utility.yul\":470:533   */\n      tag_53\n      jumpi\n        /* \"#utility.yul\":529:530   */\n      0x00\n        /* \"#utility.yul\":526:527   */\n      0x00\n        /* \"#utility.yul\":519:531   */\n      revert\n        /* \"#utility.yul\":470:533   */\n    tag_53:\n        /* \"#utility.yul\":417:539   */\n      pop\n      jump\t// out\n        /* \"#utility.yul\":545:684   */\n    tag_43:\n        /* \"#utility.yul\":591:596   */\n      0x00\n        /* \"#utility.yul\":629:635   */\n      dup2\n        /* \"#utility.yul\":616:636   */\n      calldataload\n        /* \"#utility.yul\":607:636   */\n      swap1\n      pop\n        /* \"#utility.yul\":645:678   */\n      tag_55\n        /* \"#utility.yul\":672:677   */\n      dup2\n        /* \"#utility.yul\":645:678   */\n      tag_42\n      jump\t// in\n    tag_55:\n        /* \"#utility.yul\":545:684   */\n      swap3\n      swap2\n      pop\n      pop\n      jump\t// out\n        /* \"#utility.yul\":690:1019   */\n    tag_8:\n        /* \"#utility.yul\":749:755   */\n      0x00\n        /* \"#utility.yul\":798:800   */\n      0x20\n        /* \"#utility.yul\":786:795   */\n      dup3\n        /* \"#utility.yul\":777:784   */\n      dup5\n        /* \"#utility.yul\":773:796   */\n      sub\n        /* \"#utility.yul\":769:801   */\n      slt\n        /* \"#utility.yul\":766:885   */\n      iszero\n      tag_57\n      jumpi\n        /* \"#utility.yul\":804:883   */\n      tag_58\n      tag_39\n      jump\t// in\n    tag_58:\n        /* \"#utility.yul\":766:885   */\n    tag_57:\n        /* \"#utility.yul\":924:925   */\n      0x00\n        /* \"#utility.yul\":949:1002   */\n      tag_59\n        /* \"#utility.yul\":994:1001   */\n      dup5\n        /* \"#utility.yul\":985:991   */\n      dup3\n        /* \"#utility.yul\":974:983   */\n      dup6\n        /* \"#utility.yul\":970:992   */\n      add\n        /* \"#utility.yul\":949:1002   */\n      tag_43\n      jump\t// in\n    tag_59:\n        /* \"#utility.yul\":939:1002   */\n      swap2\n      pop\n        /* \"#utility.yul\":895:1012   */\n      pop\n        /* \"#utility.yul\":690:1019   */\n      swap3\n      swap2\n      pop\n      pop\n      jump\t// out\n        /* \"#utility.yul\":1025:1143   */\n    tag_44:\n        /* \"#utility.yul\":1112:1136   */\n      tag_61\n        /* \"#utility.yul\":1130:1135   */\n      dup2\n        /* \"#utility.yul\":1112:1136   */\n      tag_41\n      jump\t// in\n    tag_61:\n        /* \"#utility.yul\":1107:1110   */\n      dup3\n        /* \"#utility.yul\":1100:1137   */\n      mstore\n        /* \"#utility.yul\":1025:1143   */\n      pop\n      pop\n      jump\t// out\n        /* \"#utility.yul\":1149:1371   */\n    tag_11:\n        /* \"#utility.yul\":1242:1246   */\n      0x00\n        /* \"#utility.yul\":1280:1282   */\n      0x20\n        /* \"#utility.yul\":1269:1278   */\n      dup3\n        /* \"#utility.yul\":1265:1283   */\n      add\n        /* \"#utility.yul\":1257:1283   */\n      swap1\n      pop\n        /* \"#utility.yul\":1293:1364   */\n      tag_63\n        /* \"#utility.yul\":1361:1362   */\n      0x00\n        /* \"#utility.yul\":1350:1359   */\n      dup4\n        /* \"#utility.yul\":1346:1363   */\n      add\n        /* \"#utility.yul\":1337:1343   */\n      dup5\n        /* \"#utility.yul\":1293:1364   */\n      tag_44\n      jump\t// in\n    tag_63:\n        /* \"#utility.yul\":1149:1371   */\n      swap3\n      swap2\n      pop\n      pop\n      jump\t// out\n        /* \"#utility.yul\":1377:1557   */\n    tag_45:\n        /* \"#utility.yul\":1425:1502   */\n      0x4e487b7100000000000000000000000000000000000000000000000000000000\n        /* \"#utility.yul\":1422:1423   */\n      0x00\n        /* \"#utility.yul\":1415:1503   */\n      mstore\n        /* \"#utility.yul\":1522:1526   */\n      0x11\n        /* \"#utility.yul\":1519:1520   */\n      0x04\n        /* \"#utility.yul\":1512:1527   */\n      mstore\n        /* \"#utility.yul\":1546:1550   */\n      0x24\n        /* \"#utility.yul\":1543:1544   */\n      0x00\n        /* \"#utility.yul\":1536:1551   */\n      revert\n        /* \"#utility.yul\":1563:1754   */\n    tag_25:\n        /* \"#utility.yul\":1603:1606   */\n      0x00\n        /* \"#utility.yul\":1622:1642   */\n      tag_66\n        /* \"#utility.yul\":1640:1641   */\n      dup3\n        /* \"#utility.yul\":1622:1642   */\n      tag_41\n      jump\t// in\n    tag_66:\n        /* \"#utility.yul\":1617:1642   */\n      swap2\n      pop\n        /* \"#utility.yul\":1656:1676   */\n      tag_67\n        /* \"#utility.yul\":1674:1675   */\n      dup4\n        /* \"#utility.yul\":1656:1676   */\n      tag_41\n      jump\t// in\n    tag_67:\n        /* \"#utility.yul\":1651:1676   */\n      swap3\n      pop\n        /* \"#utility.yul\":1699:1700   */\n      dup3\n        /* \"#utility.yul\":1696:1697   */\n      dup3\n        /* \"#utility.yul\":1692:1701   */\n      add\n        /* \"#utility.yul\":1685:1701   */\n      swap1\n      pop\n        /* \"#utility.yul\":1720:1723   */\n      dup1\n        /* \"#utility.yul\":1717:1718   */\n      dup3\n        /* \"#utility.yul\":1714:1724   */\n      gt\n        /* \"#utility.yul\":1711:1747   */\n      iszero\n      tag_68\n      jumpi\n        /* \"#utility.yul\":1727:1745   */\n      tag_69\n      tag_45\n      jump\t// in\n    tag_69:\n        /* \"#utility.yul\":1711:1747   */\n    tag_68:\n        /* \"#utility.yul\":1563:1754   */\n      swap3\n      swap2\n      pop\n      pop\n      jump\t// out\n        /* \"#utility.yul\":1760:1993   */\n    tag_31:\n        /* \"#utility.yul\":1799:1802   */\n      0x00\n        /* \"#utility.yul\":1822:1846   */\n      tag_71\n        /* \"#utility.yul\":1840:1845   */\n      dup3\n        /* \"#utility.yul\":1822:1846   */\n      tag_41\n      jump\t// in\n    tag_71:\n        /* \"#utility.yul\":1813:1846   */\n      swap2\n      pop\n        /* \"#utility.yul\":1868:1934   */\n      0xffffffffffffffffffffffffffffffffffffffffffffffffffffffffffffffff\n        /* \"#utility.yul\":1861:1866   */\n      dup3\n        /* \"#utility.yul\":1858:1935   */\n      sub\n        /* \"#utility.yul\":1855:1958   */\n      tag_72\n      jumpi\n        /* \"#utility.yul\":1938:1956   */\n      tag_73\n      tag_45\n      jump\t// in\n    tag_73:\n        /* \"#utility.yul\":1855:1958   */\n    tag_72:\n        /* \"#utility.yul\":1985:1986   */\n      0x01\n        /* \"#utility.yul\":1978:1983   */\n      dup3\n        /* \"#utility.yul\":1974:1987   */\n      add\n        /* \"#utility.yul\":1967:1987   */\n      swap1\n      pop\n        /* \"#utility.yul\":1760:1993   */\n      swap2\n      swap1\n      pop\n      jump\t// out\n\n    auxdata: 0xa26469706673582212200a53bb95d95763d0786226546b5b0e6aa4ab4d7f3ed795cae789753c7bde46ed64736f6c634300081e0033\n}\n",
				"bytecode": {
					"linkReferences": {},
					"object": "6080604052348015600e575f5ffd5b506102d68061001c5f395ff3fe608060405234801561000f575f5ffd5b506004361061003f575f3560e01c8063456901e4146100435780635a5e80e7146100735780637c9052de146100a3575b5f5ffd5b61005d600480360381019061005891906101a6565b6100d3565b60405161006a91906101e0565b60405180910390f35b61008d600480360381019061008891906101a6565b610107565b60405161009a91906101e0565b60405180910390f35b6100bd60048036038101906100b891906101a6565b61013e565b6040516100ca91906101e0565b60405180910390f35b5f5f5f5f90505b838110156100fd5780826100ee9190610226565b915080806001019150506100da565b5080915050919050565b5f5f5f5b8381101561013457808261011f9190610226565b9150808061012c90610259565b91505061010b565b8192505050919050565b5f5f5f5b808261014e9190610226565b9150808061015b90610259565b915050838110610142578192505050919050565b5f5ffd5b5f819050919050565b61018581610173565b811461018f575f5ffd5b50565b5f813590506101a08161017c565b92915050565b5f602082840312156101bb576101ba61016f565b5b5f6101c884828501610192565b91505092915050565b6101da81610173565b82525050565b5f6020820190506101f35f8301846101d1565b92915050565b7f4e487b71000000000000000000000000000000000000000000000000000000005f52601160045260245ffd5b5f61023082610173565b915061023b83610173565b9250828201905080821115610253576102526101f9565b5b92915050565b5f61026382610173565b91507fffffffffffffffffffffffffffffffffffffffffffffffffffffffffffffffff8203610295576102946101f9565b5b60018201905091905056fea26469706673582212200a53bb95d95763d0786226546b5b0e6aa4ab4d7f3ed795cae789753c7bde46ed64736f6c634300081e0033",
					"opcodes": "PUSH1 0x80 PUSH1 0x40 MSTORE CALLVALUE DUP1 ISZERO PUSH1 0xE JUMPI PUSH0 PUSH0 REVERT JUMPDEST POP PUSH2 0x2D6 DUP1 PUSH2 0x1C PUSH0 CODECOPY PUSH0 RETURN INVALID PUSH1 0x80 PUSH1 0x40 MSTORE CALLVALUE DUP1 ISZERO PUSH2 0xF JUMPI PUSH0 PUSH0 REVERT JUMPDEST POP PUSH1 0x4 CALLDATASIZE LT PUSH2 0x3F JUMPI PUSH0 CALLDATALOAD PUSH1 0xE0 SHR DUP1 PUSH4 0x456901E4 EQ PUSH2 0x43 JUMPI DUP1 PUSH4 0x5A5E80E7 EQ PUSH2 0x73 JUMPI DUP1 PUSH4 0x7C9052DE EQ PUSH2 0xA3 JUMPI JUMPDEST PUSH0 PUSH0 REVERT JUMPDEST PUSH2 0x5D PUSH1 0x4 DUP1 CALLDATASIZE SUB DUP2 ADD SWAP1 PUSH2 0x58 SWAP2 SWAP1 PUSH2 0x1A6 JUMP JUMPDEST PUSH2 0xD3 JUMP JUMPDEST PUSH1 0x40 MLOAD PUSH2 0x6A SWAP2 SWAP1 PUSH2 0x1E0 JUMP JUMPDEST PUSH1 0x40 MLOAD DUP1 SWAP2 SUB SWAP1 RETURN JUMPDEST PUSH2 0x8D PUSH1 0x4 DUP1 CALLDATASIZE SUB DUP2 ADD SWAP1 PUSH2 0x88 SWAP2 SWAP1 PUSH2 0x1A6 JUMP JUMPDEST PUSH2 0x107 JUMP JUMPDEST PUSH1 0x40 MLOAD PUSH2 0x9A SWAP2 SWAP1 PUSH2 0x1E0 JUMP JUMPDEST PUSH1 0x40 MLOAD DUP1 SWAP2 SUB SWAP1 RETURN JUMPDEST PUSH2 0xBD PUSH1 0x4 DUP1 CALLDATASIZE SUB DUP2 ADD SWAP1 PUSH2 0xB8 SWAP2 SWAP1 PUSH2 0x1A6 JUMP JUMPDEST PUSH2 0x13E JUMP JUMPDEST PUSH1 0x40 MLOAD PUSH2 0xCA SWAP2 SWAP1 PUSH2 0x1E0 JUMP JUMPDEST PUSH1 0x40 MLOAD DUP1 SWAP2 SUB SWAP1 RETURN JUMPDEST PUSH0 PUSH0 PUSH0 PUSH0 SWAP1 POP JUMPDEST DUP4 DUP2 LT ISZERO PUSH2 0xFD JUMPI DUP1 DUP3 PUSH2 0xEE SWAP2 SWAP1 PUSH2 0x226 JUMP JUMPDEST SWAP2 POP DUP1 DUP1 PUSH1 0x1 ADD SWAP2 POP POP PUSH2 0xDA JUMP JUMPDEST POP DUP1 SWAP2 POP POP SWAP2 SWAP1 POP JUMP JUMPDEST PUSH0 PUSH0 PUSH0 JUMPDEST DUP4 DUP2 LT ISZERO PUSH2 0x134 JUMPI DUP1 DUP3 PUSH2 0x11F SWAP2 SWAP1 PUSH2 0x226 JUMP JUMPDEST SWAP2 POP DUP1 DUP1 PUSH2 0x12C SWAP1 PUSH2 0x259 JUMP JUMPDEST SWAP2 POP POP PUSH2 0x10B JUMP JUMPDEST DUP2 SWAP3 POP POP POP SWAP2 SWAP1 POP JUMP JUMPDEST PUSH0 PUSH0 PUSH0 JUMPDEST DUP1 DUP3 PUSH2 0x14E SWAP2 SWAP1 PUSH2 0x226 JUMP JUMPDEST SWAP2 POP DUP1 DUP1 PUSH2 0x15B SWAP1 PUSH2 0x259 JUMP JUMPDEST SWAP2 POP POP DUP4 DUP2 LT PUSH2 0x142 JUMPI DUP2 SWAP3 POP POP POP SWAP2 SWAP1 POP JUMP JUMPDEST PUSH0 PUSH0 REVERT JUMPDEST PUSH0 DUP2 SWAP1 POP SWAP2 SWAP1 POP JUMP JUMPDEST PUSH2 0x185 DUP2 PUSH2 0x173 JUMP JUMPDEST DUP2 EQ PUSH2 0x18F JUMPI PUSH0 PUSH0 REVERT JUMPDEST POP JUMP JUMPDEST PUSH0 DUP2 CALLDATALOAD SWAP1 POP PUSH2 0x1A0 DUP2 PUSH2 0x17C JUMP JUMPDEST SWAP3 SWAP2 POP POP JUMP JUMPDEST PUSH0 PUSH1 0x20 DUP3 DUP5 SUB SLT ISZERO PUSH2 0x1BB JUMPI PUSH2 0x1BA PUSH2 0x16F JUMP JUMPDEST JUMPDEST PUSH0 PUSH2 0x1C8 DUP5 DUP3 DUP6 ADD PUSH2 0x192 JUMP JUMPDEST SWAP2 POP POP SWAP3 SWAP2 POP POP JUMP JUMPDEST PUSH2 0x1DA DUP2 PUSH2 0x173 JUMP JUMPDEST DUP3 MSTORE POP POP JUMP JUMPDEST PUSH0 PUSH1 0x20 DUP3 ADD SWAP1 POP PUSH2 0x1F3 PUSH0 DUP4 ADD DUP5 PUSH2 0x1D1 JUMP JUMPDEST SWAP3 SWAP2 POP POP JUMP JUMPDEST PUSH32 0x4E487B7100000000000000000000000000000000000000000000000000000000 PUSH0 MSTORE PUSH1 0x11 PUSH1 0x4 MSTORE PUSH1 0x24 PUSH0 REVERT JUMPDEST PUSH0 PUSH2 0x230 DUP3 PUSH2 0x173 JUMP JUMPDEST SWAP2 POP PUSH2 0x23B DUP4 PUSH2 0x173 JUMP JUMPDEST SWAP3 POP DUP3 DUP3 ADD SWAP1 POP DUP1 DUP3 GT ISZERO PUSH2 0x253 JUMPI PUSH2 0x252 PUSH2 0x1F9 JUMP JUMPDEST JUMPDEST SWAP3 SWAP2 POP POP JUMP JUMPDEST PUSH0 PUSH2 0x263 DUP3 PUSH2 0x173 JUMP JUMPDEST SWAP2 POP PUSH32 0xFFFFFFFFFFFFFFFFFFFFFFFFFFFFFFFFFFFFFFFFFFFFFFFFFFFFFFFFFFFFFFFF DUP3 SUB PUSH2 0x295 JUMPI PUSH2 0x294 PUSH2 0x1F9 JUMP JUMPDEST JUMPDEST PUSH1 0x1 DUP3 ADD SWAP1 POP SWAP2 SWAP1 POP JUMP INVALID LOG2 PUSH5 0x6970667358 0x22 SLT KECCAK256 EXP MSTORE8 0xBB SWAP6 0xD9 JUMPI PUSH4 0xD0786226 SLOAD PUSH12 0x5B0E6AA4AB4D7F3ED795CAE7 DUP10 PUSH22 0x3C7BDE46ED64736F6C634300081E0033000000000000 "
				},
				"gasEstimates": {
					"creation": {
						"codeDepositCost": "145200",
						"executionCost": "188",
						"totalCost": "145388"
					},
					"external": {
						"dowhileloop(uint256)": "infinite",
						"forLoop(uint256)": "infinite",
						"whileLoop(uint256)": "infinite"
					}
				},
				"methodIdentifiers": {
					"dowhileloop(uint256)": "7c9052de",
					"forLoop(uint256)": "456901e4",
					"whileLoop(uint256)": "5a5e80e7"
				}
			},
			"storageLayout": {
				"storage": [],
				"types": null
			},
			"userdoc": {
				"kind": "user",
				"methods": {},
				"version": 1
			}
		}
	}
}