{
	"contracts/stateVariable.sol": {
		"stateVariable": {
			"abi": [
				{
					"inputs": [],
					"stateMutability": "nonpayable",
					"type": "constructor"
				},
				{
					"inputs": [],
					"name": "number",
					"outputs": [
						{
							"internalType": "uint256",
							"name": "",
							"type": "uint256"
						}
					],
					"stateMutability": "view",
					"type": "function"
				},
				{
					"inputs": [],
					"name": "setter",
					"outputs": [],
					"stateMutability": "nonpayable",
					"type": "function"
				}
			],
			"devdoc": {
				"kind": "dev",
				"methods": {},
				"version": 1
			},
			"evm": {
				"assembly": "    /* \"contracts/stateVariable.sol\":76:242  contract stateVariable {... */\n  mstore(0x40, 0x80)\n    /* \"contracts/stateVariable.sol\":133:177  constructor() {... */\n  callvalue\n  dup1\n  iszero\n  tag_1\n  jumpi\n  revert(0x00, 0x00)\ntag_1:\n  pop\n    /* \"contracts/stateVariable.sol\":167:169  10 */\n  0x0a\n    /* \"contracts/stateVariable.sol\":158:164  number */\n  0x00\n    /* \"contracts/stateVariable.sol\":158:169  number = 10 */\n  dup2\n  swap1\n  sstore\n  pop\n    /* \"contracts/stateVariable.sol\":76:242  contract stateVariable {... */\n  dataSize(sub_0)\n  dup1\n  dataOffset(sub_0)\n  0x00\n  codecopy\n  0x00\n  return\nstop\n\nsub_0: assembly {\n        /* \"contracts/stateVariable.sol\":76:242  contract stateVariable {... */\n      mstore(0x40, 0x80)\n      callvalue\n      dup1\n      iszero\n      tag_1\n      jumpi\n      revert(0x00, 0x00)\n    tag_1:\n      pop\n      jumpi(tag_2, lt(calldatasize, 0x04))\n      shr(0xe0, calldataload(0x00))\n      dup1\n      0x3f3108f7\n      eq\n      tag_3\n      jumpi\n      dup1\n      0x8381f58a\n      eq\n      tag_4\n      jumpi\n    tag_2:\n      revert(0x00, 0x00)\n        /* \"contracts/stateVariable.sol\":185:239  function setter() public {... */\n    tag_3:\n      tag_5\n      tag_6\n      jump\t// in\n    tag_5:\n      stop\n        /* \"contracts/stateVariable.sol\":106:124  uint public number */\n    tag_4:\n      tag_7\n      tag_8\n      jump\t// in\n    tag_7:\n      mload(0x40)\n      tag_9\n      swap2\n      swap1\n      tag_10\n      jump\t// in\n    tag_9:\n      mload(0x40)\n      dup1\n      swap2\n      sub\n      swap1\n      return\n        /* \"contracts/stateVariable.sol\":185:239  function setter() public {... */\n    tag_6:\n        /* \"contracts/stateVariable.sol\":228:231  100 */\n      0x64\n        /* \"contracts/stateVariable.sol\":221:227  number */\n      0x00\n        /* \"contracts/stateVariable.sol\":221:231  number=100 */\n      dup2\n      swap1\n      sstore\n      pop\n        /* \"contracts/stateVariable.sol\":185:239  function setter() public {... */\n      jump\t// out\n        /* \"contracts/stateVariable.sol\":106:124  uint public number */\n    tag_8:\n      sload(0x00)\n      dup2\n      jump\t// out\n        /* \"#utility.yul\":7:84   */\n    tag_12:\n        /* \"#utility.yul\":44:51   */\n      0x00\n        /* \"#utility.yul\":73:78   */\n      dup2\n        /* \"#utility.yul\":62:78   */\n      swap1\n      pop\n        /* \"#utility.yul\":7:84   */\n      swap2\n      swap1\n      pop\n      jump\t// out\n        /* \"#utility.yul\":90:208   */\n    tag_13:\n        /* \"#utility.yul\":177:201   */\n      tag_17\n        /* \"#utility.yul\":195:200   */\n      dup2\n        /* \"#utility.yul\":177:201   */\n      tag_12\n      jump\t// in\n    tag_17:\n        /* \"#utility.yul\":172:175   */\n      dup3\n        /* \"#utility.yul\":165:202   */\n      mstore\n        /* \"#utility.yul\":90:208   */\n      pop\n      pop\n      jump\t// out\n        /* \"#utility.yul\":214:436   */\n    tag_10:\n        /* \"#utility.yul\":307:311   */\n      0x00\n        /* \"#utility.yul\":345:347   */\n      0x20\n        /* \"#utility.yul\":334:343   */\n      dup3\n        /* \"#utility.yul\":330:348   */\n      add\n        /* \"#utility.yul\":322:348   */\n      swap1\n      pop\n        /* \"#utility.yul\":358:429   */\n      tag_19\n        /* \"#utility.yul\":426:427   */\n      0x00\n        /* \"#utility.yul\":415:424   */\n      dup4\n        /* \"#utility.yul\":411:428   */\n      add\n        /* \"#utility.yul\":402:408   */\n      dup5\n        /* \"#utility.yul\":358:429   */\n      tag_13\n      jump\t// in\n    tag_19:\n        /* \"#utility.yul\":214:436   */\n      swap3\n      swap2\n      pop\n      pop\n      jump\t// out\n\n    auxdata: 0xa2646970667358221220d75829d7388104a80e387eb3a20fc62fe7bc9eeb115e73dc789cf8c56cc84ef864736f6c634300081e0033\n}\n",
				"bytecode": {
					"linkReferences": {},
					"object": "6080604052348015600e575f5ffd5b50600a5f8190555060c78060215f395ff3fe6080604052348015600e575f5ffd5b50600436106030575f3560e01c80633f3108f71460345780638381f58a14603c575b5f5ffd5b603a6056565b005b6042605f565b604051604d9190607a565b60405180910390f35b60645f81905550565b5f5481565b5f819050919050565b6074816064565b82525050565b5f602082019050608b5f830184606d565b9291505056fea2646970667358221220d75829d7388104a80e387eb3a20fc62fe7bc9eeb115e73dc789cf8c56cc84ef864736f6c634300081e0033",
					"opcodes": "PUSH1 0x80 PUSH1 0x40 MSTORE CALLVALUE DUP1 ISZERO PUSH1 0xE JUMPI PUSH0 PUSH0 REVERT JUMPDEST POP PUSH1 0xA PUSH0 DUP2 SWAP1 SSTORE POP PUSH1 0xC7 DUP1 PUSH1 0x21 PUSH0 CODECOPY PUSH0 RETURN INVALID PUSH1 0x80 PUSH1 0x40 MSTORE CALLVALUE DUP1 ISZERO PUSH1 0xE JUMPI PUSH0 PUSH0 REVERT JUMPDEST POP PUSH1 0x4 CALLDATASIZE LT PUSH1 0x30 JUMPI PUSH0 CALLDATALOAD PUSH1 0xE0 SHR DUP1 PUSH4 0x3F3108F7 EQ PUSH1 0x34 JUMPI DUP1 PUSH4 0x8381F58A EQ PUSH1 0x3C JUMPI JUMPDEST PUSH0 PUSH0 REVERT JUMPDEST PUSH1 0x3A PUSH1 0x56 JUMP JUMPDEST STOP JUMPDEST PUSH1 0x42 PUSH1 0x5F JUMP JUMPDEST PUSH1 0x40 MLOAD PUSH1 0x4D SWAP2 SWAP1 PUSH1 0x7A JUMP JUMPDEST PUSH1 0x40 MLOAD DUP1 SWAP2 SUB SWAP1 RETURN JUMPDEST PUSH1 0x64 PUSH0 DUP2 SWAP1 SSTORE POP JUMP JUMPDEST PUSH0 SLOAD DUP2 JUMP JUMPDEST PUSH0 DUP2 SWAP1 POP SWAP2 SWAP1 POP JUMP JUMPDEST PUSH1 0x74 DUP2 PUSH1 0x64 JUMP JUMPDEST DUP3 MSTORE POP POP JUMP JUMPDEST PUSH0 PUSH1 0x20 DUP3 ADD SWAP1 POP PUSH1 0x8B PUSH0 DUP4 ADD DUP5 PUSH1 0x6D JUMP JUMPDEST SWAP3 SWAP2 POP POP JUMP INVALID LOG2 PUSH5 0x6970667358 0x22 SLT KECCAK256 0xD7 PC 0x29 0xD7 CODESIZE DUP2 DIV 0xA8 0xE CODESIZE PUSH31 0xB3A20FC62FE7BC9EEB115E73DC789CF8C56CC84EF864736F6C634300081E00 CALLER "
				},
				"gasEstimates": {
					"creation": {
						"codeDepositCost": "39800",
						"executionCost": "22204",
						"totalCost": "62004"
					},
					"external": {
						"number()": "2424",
						"setter()": "22234"
					}
				},
				"methodIdentifiers": {
					"number()": "8381f58a",
					"setter()": "3f3108f7"
				}
			},
			"storageLayout": {
				"storage": [
					{
						"astId": 3,
						"contract": "contracts/stateVariable.sol:stateVariable",
						"label": "number",
						"offset": 0,
						"slot": "0",
						"type": "t_uint256"
					}
				],
				"types": {
					"t_uint256": {
						"encoding": "inplace",
						"label": "uint256",
						"numberOfBytes": "32"
					}
				}
			},
			"userdoc": {
				"kind": "user",
				"methods": {},
				"version": 1
			}
		}
	}
}