{
	"contracts/localVariable.sol": {
		"localVariable": {
			"abi": [
				{
					"inputs": [],
					"name": "c",
					"outputs": [
						{
							"internalType": "uint256",
							"name": "",
							"type": "uint256"
						}
					],
					"stateMutability": "view",
					"type": "function"
				},
				{
					"inputs": [],
					"name": "localVar",
					"outputs": [
						{
							"internalType": "uint256",
							"name": "",
							"type": "uint256"
						}
					],
					"stateMutability": "pure",
					"type": "function"
				}
			],
			"devdoc": {
				"kind": "dev",
				"methods": {},
				"version": 1
			},
			"evm": {
				"assembly": "    /* \"contracts/localVariable.sol\":74:259  contract localVariable {... */\n  mstore(0x40, 0x80)\n    /* \"contracts/localVariable.sol\":245:255  localVar() */\n  tag_1\n    /* \"contracts/localVariable.sol\":245:253  localVar */\n  shl(0x20, tag_2)\n    /* \"contracts/localVariable.sol\":245:255  localVar() */\n  0x20\n  shr\n  jump\t// in\ntag_1:\n    /* \"contracts/localVariable.sol\":229:255  uint public c = localVar() */\n  0x00\n  sstore\n    /* \"contracts/localVariable.sol\":74:259  contract localVariable {... */\n  callvalue\n  dup1\n  iszero\n  tag_3\n  jumpi\n  revert(0x00, 0x00)\ntag_3:\n  pop\n  jump(tag_4)\n    /* \"contracts/localVariable.sol\":104:223  function localVar() public pure returns(uint) {... */\ntag_2:\n    /* \"contracts/localVariable.sol\":144:148  uint */\n  0x00\n    /* \"contracts/localVariable.sol\":161:167  uint a */\n  0x00\n    /* \"contracts/localVariable.sol\":170:172  10 */\n  0x0a\n    /* \"contracts/localVariable.sol\":161:172  uint a = 10 */\n  swap1\n  pop\n    /* \"contracts/localVariable.sol\":183:189  uint b */\n  0x00\n    /* \"contracts/localVariable.sol\":192:194  20 */\n  0x14\n    /* \"contracts/localVariable.sol\":183:194  uint b = 20 */\n  swap1\n  pop\n    /* \"contracts/localVariable.sol\":214:215  b */\n  dup1\n    /* \"contracts/localVariable.sol\":212:213  a */\n  dup3\n    /* \"contracts/localVariable.sol\":212:215  a+b */\n  tag_6\n  swap2\n  swap1\n  tag_7\n  jump\t// in\ntag_6:\n    /* \"contracts/localVariable.sol\":205:215  return a+b */\n  swap3\n  pop\n  pop\n  pop\n    /* \"contracts/localVariable.sol\":104:223  function localVar() public pure returns(uint) {... */\n  swap1\n  jump\t// out\n    /* \"#utility.yul\":7:84   */\ntag_8:\n    /* \"#utility.yul\":44:51   */\n  0x00\n    /* \"#utility.yul\":73:78   */\n  dup2\n    /* \"#utility.yul\":62:78   */\n  swap1\n  pop\n    /* \"#utility.yul\":7:84   */\n  swap2\n  swap1\n  pop\n  jump\t// out\n    /* \"#utility.yul\":90:270   */\ntag_9:\n    /* \"#utility.yul\":138:215   */\n  0x4e487b7100000000000000000000000000000000000000000000000000000000\n    /* \"#utility.yul\":135:136   */\n  0x00\n    /* \"#utility.yul\":128:216   */\n  mstore\n    /* \"#utility.yul\":235:239   */\n  0x11\n    /* \"#utility.yul\":232:233   */\n  0x04\n    /* \"#utility.yul\":225:240   */\n  mstore\n    /* \"#utility.yul\":259:263   */\n  0x24\n    /* \"#utility.yul\":256:257   */\n  0x00\n    /* \"#utility.yul\":249:264   */\n  revert\n    /* \"#utility.yul\":276:467   */\ntag_7:\n    /* \"#utility.yul\":316:319   */\n  0x00\n    /* \"#utility.yul\":335:355   */\n  tag_14\n    /* \"#utility.yul\":353:354   */\n  dup3\n    /* \"#utility.yul\":335:355   */\n  tag_8\n  jump\t// in\ntag_14:\n    /* \"#utility.yul\":330:355   */\n  swap2\n  pop\n    /* \"#utility.yul\":369:389   */\n  tag_15\n    /* \"#utility.yul\":387:388   */\n  dup4\n    /* \"#utility.yul\":369:389   */\n  tag_8\n  jump\t// in\ntag_15:\n    /* \"#utility.yul\":364:389   */\n  swap3\n  pop\n    /* \"#utility.yul\":412:413   */\n  dup3\n    /* \"#utility.yul\":409:410   */\n  dup3\n    /* \"#utility.yul\":405:414   */\n  add\n    /* \"#utility.yul\":398:414   */\n  swap1\n  pop\n    /* \"#utility.yul\":433:436   */\n  dup1\n    /* \"#utility.yul\":430:431   */\n  dup3\n    /* \"#utility.yul\":427:437   */\n  gt\n    /* \"#utility.yul\":424:460   */\n  iszero\n  tag_16\n  jumpi\n    /* \"#utility.yul\":440:458   */\n  tag_17\n  tag_9\n  jump\t// in\ntag_17:\n    /* \"#utility.yul\":424:460   */\ntag_16:\n    /* \"#utility.yul\":276:467   */\n  swap3\n  swap2\n  pop\n  pop\n  jump\t// out\n    /* \"contracts/localVariable.sol\":74:259  contract localVariable {... */\ntag_4:\n  dataSize(sub_0)\n  dup1\n  dataOffset(sub_0)\n  0x00\n  codecopy\n  0x00\n  return\nstop\n\nsub_0: assembly {\n        /* \"contracts/localVariable.sol\":74:259  contract localVariable {... */\n      mstore(0x40, 0x80)\n      callvalue\n      dup1\n      iszero\n      tag_1\n      jumpi\n      revert(0x00, 0x00)\n    tag_1:\n      pop\n      jumpi(tag_2, lt(calldatasize, 0x04))\n      shr(0xe0, calldataload(0x00))\n      dup1\n      0x112a83ac\n      eq\n      tag_3\n      jumpi\n      dup1\n      0xc3da42b8\n      eq\n      tag_4\n      jumpi\n    tag_2:\n      revert(0x00, 0x00)\n        /* \"contracts/localVariable.sol\":104:223  function localVar() public pure returns(uint) {... */\n    tag_3:\n      tag_5\n      tag_6\n      jump\t// in\n    tag_5:\n      mload(0x40)\n      tag_7\n      swap2\n      swap1\n      tag_8\n      jump\t// in\n    tag_7:\n      mload(0x40)\n      dup1\n      swap2\n      sub\n      swap1\n      return\n        /* \"contracts/localVariable.sol\":229:255  uint public c = localVar() */\n    tag_4:\n      tag_9\n      tag_10\n      jump\t// in\n    tag_9:\n      mload(0x40)\n      tag_11\n      swap2\n      swap1\n      tag_8\n      jump\t// in\n    tag_11:\n      mload(0x40)\n      dup1\n      swap2\n      sub\n      swap1\n      return\n        /* \"contracts/localVariable.sol\":104:223  function localVar() public pure returns(uint) {... */\n    tag_6:\n        /* \"contracts/localVariable.sol\":144:148  uint */\n      0x00\n        /* \"contracts/localVariable.sol\":161:167  uint a */\n      0x00\n        /* \"contracts/localVariable.sol\":170:172  10 */\n      0x0a\n        /* \"contracts/localVariable.sol\":161:172  uint a = 10 */\n      swap1\n      pop\n        /* \"contracts/localVariable.sol\":183:189  uint b */\n      0x00\n        /* \"contracts/localVariable.sol\":192:194  20 */\n      0x14\n        /* \"contracts/localVariable.sol\":183:194  uint b = 20 */\n      swap1\n      pop\n        /* \"contracts/localVariable.sol\":214:215  b */\n      dup1\n        /* \"contracts/localVariable.sol\":212:213  a */\n      dup3\n        /* \"contracts/localVariable.sol\":212:215  a+b */\n      tag_13\n      swap2\n      swap1\n      tag_14\n      jump\t// in\n    tag_13:\n        /* \"contracts/localVariable.sol\":205:215  return a+b */\n      swap3\n      pop\n      pop\n      pop\n        /* \"contracts/localVariable.sol\":104:223  function localVar() public pure returns(uint) {... */\n      swap1\n      jump\t// out\n        /* \"contracts/localVariable.sol\":229:255  uint public c = localVar() */\n    tag_10:\n      sload(0x00)\n      dup2\n      jump\t// out\n        /* \"#utility.yul\":7:84   */\n    tag_15:\n        /* \"#utility.yul\":44:51   */\n      0x00\n        /* \"#utility.yul\":73:78   */\n      dup2\n        /* \"#utility.yul\":62:78   */\n      swap1\n      pop\n        /* \"#utility.yul\":7:84   */\n      swap2\n      swap1\n      pop\n      jump\t// out\n        /* \"#utility.yul\":90:208   */\n    tag_16:\n        /* \"#utility.yul\":177:201   */\n      tag_21\n        /* \"#utility.yul\":195:200   */\n      dup2\n        /* \"#utility.yul\":177:201   */\n      tag_15\n      jump\t// in\n    tag_21:\n        /* \"#utility.yul\":172:175   */\n      dup3\n        /* \"#utility.yul\":165:202   */\n      mstore\n        /* \"#utility.yul\":90:208   */\n      pop\n      pop\n      jump\t// out\n        /* \"#utility.yul\":214:436   */\n    tag_8:\n        /* \"#utility.yul\":307:311   */\n      0x00\n        /* \"#utility.yul\":345:347   */\n      0x20\n        /* \"#utility.yul\":334:343   */\n      dup3\n        /* \"#utility.yul\":330:348   */\n      add\n        /* \"#utility.yul\":322:348   */\n      swap1\n      pop\n        /* \"#utility.yul\":358:429   */\n      tag_23\n        /* \"#utility.yul\":426:427   */\n      0x00\n        /* \"#utility.yul\":415:424   */\n      dup4\n        /* \"#utility.yul\":411:428   */\n      add\n        /* \"#utility.yul\":402:408   */\n      dup5\n        /* \"#utility.yul\":358:429   */\n      tag_16\n      jump\t// in\n    tag_23:\n        /* \"#utility.yul\":214:436   */\n      swap3\n      swap2\n      pop\n      pop\n      jump\t// out\n        /* \"#utility.yul\":442:622   */\n    tag_17:\n        /* \"#utility.yul\":490:567   */\n      0x4e487b7100000000000000000000000000000000000000000000000000000000\n        /* \"#utility.yul\":487:488   */\n      0x00\n        /* \"#utility.yul\":480:568   */\n      mstore\n        /* \"#utility.yul\":587:591   */\n      0x11\n        /* \"#utility.yul\":584:585   */\n      0x04\n        /* \"#utility.yul\":577:592   */\n      mstore\n        /* \"#utility.yul\":611:615   */\n      0x24\n        /* \"#utility.yul\":608:609   */\n      0x00\n        /* \"#utility.yul\":601:616   */\n      revert\n        /* \"#utility.yul\":628:819   */\n    tag_14:\n        /* \"#utility.yul\":668:671   */\n      0x00\n        /* \"#utility.yul\":687:707   */\n      tag_26\n        /* \"#utility.yul\":705:706   */\n      dup3\n        /* \"#utility.yul\":687:707   */\n      tag_15\n      jump\t// in\n    tag_26:\n        /* \"#utility.yul\":682:707   */\n      swap2\n      pop\n        /* \"#utility.yul\":721:741   */\n      tag_27\n        /* \"#utility.yul\":739:740   */\n      dup4\n        /* \"#utility.yul\":721:741   */\n      tag_15\n      jump\t// in\n    tag_27:\n        /* \"#utility.yul\":716:741   */\n      swap3\n      pop\n        /* \"#utility.yul\":764:765   */\n      dup3\n        /* \"#utility.yul\":761:762   */\n      dup3\n        /* \"#utility.yul\":757:766   */\n      add\n        /* \"#utility.yul\":750:766   */\n      swap1\n      pop\n        /* \"#utility.yul\":785:788   */\n      dup1\n        /* \"#utility.yul\":782:783   */\n      dup3\n        /* \"#utility.yul\":779:789   */\n      gt\n        /* \"#utility.yul\":776:812   */\n      iszero\n      tag_28\n      jumpi\n        /* \"#utility.yul\":792:810   */\n      tag_29\n      tag_17\n      jump\t// in\n    tag_29:\n        /* \"#utility.yul\":776:812   */\n    tag_28:\n        /* \"#utility.yul\":628:819   */\n      swap3\n      swap2\n      pop\n      pop\n      jump\t// out\n\n    auxdata: 0xa2646970667358221220a348a410ed9458f3873b0c766c7097e4ecb13bccda4f9a7d78c864c879b178b264736f6c634300081e0033\n}\n",
				"bytecode": {
					"linkReferences": {},
					"object": "60806040526010602160201b60201c565b5f55348015601c575f5ffd5b50609f565b5f5f600a90505f601490508082603691906073565b9250505090565b5f819050919050565b7f4e487b71000000000000000000000000000000000000000000000000000000005f52601160045260245ffd5b5f607b82603d565b9150608483603d565b925082820190508082111560995760986046565b5b92915050565b61015e806100ac5f395ff3fe608060405234801561000f575f5ffd5b5060043610610034575f3560e01c8063112a83ac14610038578063c3da42b814610056575b5f5ffd5b610040610074565b60405161004d91906100af565b60405180910390f35b61005e610092565b60405161006b91906100af565b60405180910390f35b5f5f600a90505f60149050808261008b91906100f5565b9250505090565b5f5481565b5f819050919050565b6100a981610097565b82525050565b5f6020820190506100c25f8301846100a0565b92915050565b7f4e487b71000000000000000000000000000000000000000000000000000000005f52601160045260245ffd5b5f6100ff82610097565b915061010a83610097565b9250828201905080821115610122576101216100c8565b5b9291505056fea2646970667358221220a348a410ed9458f3873b0c766c7097e4ecb13bccda4f9a7d78c864c879b178b264736f6c634300081e0033",
					"opcodes": "PUSH1 0x80 PUSH1 0x40 MSTORE PUSH1 0x10 PUSH1 0x21 PUSH1 0x20 SHL PUSH1 0x20 SHR JUMP JUMPDEST PUSH0 SSTORE CALLVALUE DUP1 ISZERO PUSH1 0x1C JUMPI PUSH0 PUSH0 REVERT JUMPDEST POP PUSH1 0x9F JUMP JUMPDEST PUSH0 PUSH0 PUSH1 0xA SWAP1 POP PUSH0 PUSH1 0x14 SWAP1 POP DUP1 DUP3 PUSH1 0x36 SWAP2 SWAP1 PUSH1 0x73 JUMP JUMPDEST SWAP3 POP POP POP SWAP1 JUMP JUMPDEST PUSH0 DUP2 SWAP1 POP SWAP2 SWAP1 POP JUMP JUMPDEST PUSH32 0x4E487B7100000000000000000000000000000000000000000000000000000000 PUSH0 MSTORE PUSH1 0x11 PUSH1 0x4 MSTORE PUSH1 0x24 PUSH0 REVERT JUMPDEST PUSH0 PUSH1 0x7B DUP3 PUSH1 0x3D JUMP JUMPDEST SWAP2 POP PUSH1 0x84 DUP4 PUSH1 0x3D JUMP JUMPDEST SWAP3 POP DUP3 DUP3 ADD SWAP1 POP DUP1 DUP3 GT ISZERO PUSH1 0x99 JUMPI PUSH1 0x98 PUSH1 0x46 JUMP JUMPDEST JUMPDEST SWAP3 SWAP2 POP POP JUMP JUMPDEST PUSH2 0x15E DUP1 PUSH2 0xAC PUSH0 CODECOPY PUSH0 RETURN INVALID PUSH1 0x80 PUSH1 0x40 MSTORE CALLVALUE DUP1 ISZERO PUSH2 0xF JUMPI PUSH0 PUSH0 REVERT JUMPDEST POP PUSH1 0x4 CALLDATASIZE LT PUSH2 0x34 JUMPI PUSH0 CALLDATALOAD PUSH1 0xE0 SHR DUP1 PUSH4 0x112A83AC EQ PUSH2 0x38 JUMPI DUP1 PUSH4 0xC3DA42B8 EQ PUSH2 0x56 JUMPI JUMPDEST PUSH0 PUSH0 REVERT JUMPDEST PUSH2 0x40 PUSH2 0x74 JUMP JUMPDEST PUSH1 0x40 MLOAD PUSH2 0x4D SWAP2 SWAP1 PUSH2 0xAF JUMP JUMPDEST PUSH1 0x40 MLOAD DUP1 SWAP2 SUB SWAP1 RETURN JUMPDEST PUSH2 0x5E PUSH2 0x92 JUMP JUMPDEST PUSH1 0x40 MLOAD PUSH2 0x6B SWAP2 SWAP1 PUSH2 0xAF JUMP JUMPDEST PUSH1 0x40 MLOAD DUP1 SWAP2 SUB SWAP1 RETURN JUMPDEST PUSH0 PUSH0 PUSH1 0xA SWAP1 POP PUSH0 PUSH1 0x14 SWAP1 POP DUP1 DUP3 PUSH2 0x8B SWAP2 SWAP1 PUSH2 0xF5 JUMP JUMPDEST SWAP3 POP POP POP SWAP1 JUMP JUMPDEST PUSH0 SLOAD DUP2 JUMP JUMPDEST PUSH0 DUP2 SWAP1 POP SWAP2 SWAP1 POP JUMP JUMPDEST PUSH2 0xA9 DUP2 PUSH2 0x97 JUMP JUMPDEST DUP3 MSTORE POP POP JUMP JUMPDEST PUSH0 PUSH1 0x20 DUP3 ADD SWAP1 POP PUSH2 0xC2 PUSH0 DUP4 ADD DUP5 PUSH2 0xA0 JUMP JUMPDEST SWAP3 SWAP2 POP POP JUMP JUMPDEST PUSH32 0x4E487B7100000000000000000000000000000000000000000000000000000000 PUSH0 MSTORE PUSH1 0x11 PUSH1 0x4 MSTORE PUSH1 0x24 PUSH0 REVERT JUMPDEST PUSH0 PUSH2 0xFF DUP3 PUSH2 0x97 JUMP JUMPDEST SWAP2 POP PUSH2 0x10A DUP4 PUSH2 0x97 JUMP JUMPDEST SWAP3 POP DUP3 DUP3 ADD SWAP1 POP DUP1 DUP3 GT ISZERO PUSH2 0x122 JUMPI PUSH2 0x121 PUSH2 0xC8 JUMP JUMPDEST JUMPDEST SWAP3 SWAP2 POP POP JUMP INVALID LOG2 PUSH5 0x6970667358 0x22 SLT KECCAK256 LOG3 BASEFEE LOG4 LT 0xED SWAP5 PC RETURN DUP8 EXTCODESIZE 0xC PUSH23 0x6C7097E4ECB13BCCDA4F9A7D78C864C879B178B264736F PUSH13 0x634300081E0033000000000000 "
				},
				"gasEstimates": {
					"creation": {
						"codeDepositCost": "70000",
						"executionCost": "infinite",
						"totalCost": "infinite"
					},
					"external": {
						"c()": "2424",
						"localVar()": "infinite"
					}
				},
				"methodIdentifiers": {
					"c()": "c3da42b8",
					"localVar()": "112a83ac"
				}
			},
			"storageLayout": {
				"storage": [
					{
						"astId": 23,
						"contract": "contracts/localVariable.sol:localVariable",
						"label": "c",
						"offset": 0,
						"slot": "0",
						"type": "t_uint256"
					}
				],
				"types": {
					"t_uint256": {
						"encoding": "inplace",
						"label": "uint256",
						"numberOfBytes": "32"
					}
				}
			},
			"userdoc": {
				"kind": "user",
				"methods": {},
				"version": 1
			}
		}
	}
}