{
	"contracts/modifier.sol": {
		"demoModifier": {
			"abi": [
				{
					"inputs": [],
					"name": "f1",
					"outputs": [
						{
							"internalType": "uint256",
							"name": "",
							"type": "uint256"
						}
					],
					"stateMutability": "pure",
					"type": "function"
				},
				{
					"inputs": [],
					"name": "f2",
					"outputs": [
						{
							"internalType": "uint256",
							"name": "",
							"type": "uint256"
						}
					],
					"stateMutability": "pure",
					"type": "function"
				},
				{
					"inputs": [],
					"name": "f3",
					"outputs": [
						{
							"internalType": "uint256",
							"name": "",
							"type": "uint256"
						}
					],
					"stateMutability": "pure",
					"type": "function"
				},
				{
					"inputs": [],
					"name": "f4",
					"outputs": [
						{
							"internalType": "uint256",
							"name": "",
							"type": "uint256"
						}
					],
					"stateMutability": "pure",
					"type": "function"
				}
			],
			"devdoc": {
				"kind": "dev",
				"methods": {},
				"version": 1
			},
			"evm": {
				"assembly": "    /* \"contracts/modifier.sol\":74:553  contract demoModifier {... */\n  mstore(0x40, 0x80)\n  callvalue\n  dup1\n  iszero\n  tag_1\n  jumpi\n  revert(0x00, 0x00)\ntag_1:\n  pop\n  dataSize(sub_0)\n  dup1\n  dataOffset(sub_0)\n  0x00\n  codecopy\n  0x00\n  return\nstop\n\nsub_0: assembly {\n        /* \"contracts/modifier.sol\":74:553  contract demoModifier {... */\n      mstore(0x40, 0x80)\n      callvalue\n      dup1\n      iszero\n      tag_1\n      jumpi\n      revert(0x00, 0x00)\n    tag_1:\n      pop\n      jumpi(tag_2, lt(calldatasize, 0x04))\n      shr(0xe0, calldataload(0x00))\n      dup1\n      0x9942ec6f\n      eq\n      tag_3\n      jumpi\n      dup1\n      0xaaf05f3d\n      eq\n      tag_4\n      jumpi\n      dup1\n      0xc27fc305\n      eq\n      tag_5\n      jumpi\n      dup1\n      0xc3f90202\n      eq\n      tag_6\n      jumpi\n    tag_2:\n      revert(0x00, 0x00)\n        /* \"contracts/modifier.sol\":280:362  function f2() public pure mod returns (uint) {... */\n    tag_3:\n      tag_7\n      tag_8\n      jump\t// in\n    tag_7:\n      mload(0x40)\n      tag_9\n      swap2\n      swap1\n      tag_10\n      jump\t// in\n    tag_9:\n      mload(0x40)\n      dup1\n      swap2\n      sub\n      swap1\n      return\n        /* \"contracts/modifier.sol\":372:454  function f3() public pure mod returns (uint) {... */\n    tag_4:\n      tag_11\n      tag_12\n      jump\t// in\n    tag_11:\n      mload(0x40)\n      tag_13\n      swap2\n      swap1\n      tag_10\n      jump\t// in\n    tag_13:\n      mload(0x40)\n      dup1\n      swap2\n      sub\n      swap1\n      return\n        /* \"contracts/modifier.sol\":198:270  function f1() public pure mod returns (uint) {... */\n    tag_5:\n      tag_14\n      tag_15\n      jump\t// in\n    tag_14:\n      mload(0x40)\n      tag_16\n      swap2\n      swap1\n      tag_10\n      jump\t// in\n    tag_16:\n      mload(0x40)\n      dup1\n      swap2\n      sub\n      swap1\n      return\n        /* \"contracts/modifier.sol\":464:546  function f4() public pure mod returns (uint) {... */\n    tag_6:\n      tag_17\n      tag_18\n      jump\t// in\n    tag_17:\n      mload(0x40)\n      tag_19\n      swap2\n      swap1\n      tag_10\n      jump\t// in\n    tag_19:\n      mload(0x40)\n      dup1\n      swap2\n      sub\n      swap1\n      return\n        /* \"contracts/modifier.sol\":280:362  function f2() public pure mod returns (uint) {... */\n    tag_8:\n        /* \"contracts/modifier.sol\":319:323  uint */\n      0x00\n        /* \"contracts/modifier.sol\":145:149  true */\n      0x01\n        /* \"contracts/modifier.sol\":137:149  true == true */\n      iszero\n      iszero\n        /* \"contracts/modifier.sol\":137:141  true */\n      0x01\n        /* \"contracts/modifier.sol\":137:149  true == true */\n      iszero\n      iszero\n      eq\n        /* \"contracts/modifier.sol\":129:170  require(true == true, \"True is not true\") */\n      tag_21\n      jumpi\n      mload(0x40)\n      0x08c379a000000000000000000000000000000000000000000000000000000000\n      dup2\n      mstore\n      0x04\n      add\n      tag_22\n      swap1\n      tag_23\n      jump\t// in\n    tag_22:\n      mload(0x40)\n      dup1\n      swap2\n      sub\n      swap1\n      revert\n    tag_21:\n        /* \"contracts/modifier.sol\":353:354  2 */\n      0x02\n        /* \"contracts/modifier.sol\":346:354  return 2 */\n      swap1\n      pop\n        /* \"contracts/modifier.sol\":280:362  function f2() public pure mod returns (uint) {... */\n      swap1\n      jump\t// out\n        /* \"contracts/modifier.sol\":372:454  function f3() public pure mod returns (uint) {... */\n    tag_12:\n        /* \"contracts/modifier.sol\":411:415  uint */\n      0x00\n        /* \"contracts/modifier.sol\":145:149  true */\n      0x01\n        /* \"contracts/modifier.sol\":137:149  true == true */\n      iszero\n      iszero\n        /* \"contracts/modifier.sol\":137:141  true */\n      0x01\n        /* \"contracts/modifier.sol\":137:149  true == true */\n      iszero\n      iszero\n      eq\n        /* \"contracts/modifier.sol\":129:170  require(true == true, \"True is not true\") */\n      tag_26\n      jumpi\n      mload(0x40)\n      0x08c379a000000000000000000000000000000000000000000000000000000000\n      dup2\n      mstore\n      0x04\n      add\n      tag_27\n      swap1\n      tag_23\n      jump\t// in\n    tag_27:\n      mload(0x40)\n      dup1\n      swap2\n      sub\n      swap1\n      revert\n    tag_26:\n        /* \"contracts/modifier.sol\":445:446  3 */\n      0x03\n        /* \"contracts/modifier.sol\":438:446  return 3 */\n      swap1\n      pop\n        /* \"contracts/modifier.sol\":372:454  function f3() public pure mod returns (uint) {... */\n      swap1\n      jump\t// out\n        /* \"contracts/modifier.sol\":198:270  function f1() public pure mod returns (uint) {... */\n    tag_15:\n        /* \"contracts/modifier.sol\":237:241  uint */\n      0x00\n        /* \"contracts/modifier.sol\":145:149  true */\n      0x01\n        /* \"contracts/modifier.sol\":137:149  true == true */\n      iszero\n      iszero\n        /* \"contracts/modifier.sol\":137:141  true */\n      0x01\n        /* \"contracts/modifier.sol\":137:149  true == true */\n      iszero\n      iszero\n      eq\n        /* \"contracts/modifier.sol\":129:170  require(true == true, \"True is not true\") */\n      tag_30\n      jumpi\n      mload(0x40)\n      0x08c379a000000000000000000000000000000000000000000000000000000000\n      dup2\n      mstore\n      0x04\n      add\n      tag_31\n      swap1\n      tag_23\n      jump\t// in\n    tag_31:\n      mload(0x40)\n      dup1\n      swap2\n      sub\n      swap1\n      revert\n    tag_30:\n        /* \"contracts/modifier.sol\":261:262  1 */\n      0x01\n        /* \"contracts/modifier.sol\":254:262  return 1 */\n      swap1\n      pop\n        /* \"contracts/modifier.sol\":198:270  function f1() public pure mod returns (uint) {... */\n      swap1\n      jump\t// out\n        /* \"contracts/modifier.sol\":464:546  function f4() public pure mod returns (uint) {... */\n    tag_18:\n        /* \"contracts/modifier.sol\":503:507  uint */\n      0x00\n        /* \"contracts/modifier.sol\":145:149  true */\n      0x01\n        /* \"contracts/modifier.sol\":137:149  true == true */\n      iszero\n      iszero\n        /* \"contracts/modifier.sol\":137:141  true */\n      0x01\n        /* \"contracts/modifier.sol\":137:149  true == true */\n      iszero\n      iszero\n      eq\n        /* \"contracts/modifier.sol\":129:170  require(true == true, \"True is not true\") */\n      tag_34\n      jumpi\n      mload(0x40)\n      0x08c379a000000000000000000000000000000000000000000000000000000000\n      dup2\n      mstore\n      0x04\n      add\n      tag_35\n      swap1\n      tag_23\n      jump\t// in\n    tag_35:\n      mload(0x40)\n      dup1\n      swap2\n      sub\n      swap1\n      revert\n    tag_34:\n        /* \"contracts/modifier.sol\":537:538  4 */\n      0x04\n        /* \"contracts/modifier.sol\":530:538  return 4 */\n      swap1\n      pop\n        /* \"contracts/modifier.sol\":464:546  function f4() public pure mod returns (uint) {... */\n      swap1\n      jump\t// out\n        /* \"#utility.yul\":7:84   */\n    tag_37:\n        /* \"#utility.yul\":44:51   */\n      0x00\n        /* \"#utility.yul\":73:78   */\n      dup2\n        /* \"#utility.yul\":62:78   */\n      swap1\n      pop\n        /* \"#utility.yul\":7:84   */\n      swap2\n      swap1\n      pop\n      jump\t// out\n        /* \"#utility.yul\":90:208   */\n    tag_38:\n        /* \"#utility.yul\":177:201   */\n      tag_45\n        /* \"#utility.yul\":195:200   */\n      dup2\n        /* \"#utility.yul\":177:201   */\n      tag_37\n      jump\t// in\n    tag_45:\n        /* \"#utility.yul\":172:175   */\n      dup3\n        /* \"#utility.yul\":165:202   */\n      mstore\n        /* \"#utility.yul\":90:208   */\n      pop\n      pop\n      jump\t// out\n        /* \"#utility.yul\":214:436   */\n    tag_10:\n        /* \"#utility.yul\":307:311   */\n      0x00\n        /* \"#utility.yul\":345:347   */\n      0x20\n        /* \"#utility.yul\":334:343   */\n      dup3\n        /* \"#utility.yul\":330:348   */\n      add\n        /* \"#utility.yul\":322:348   */\n      swap1\n      pop\n        /* \"#utility.yul\":358:429   */\n      tag_47\n        /* \"#utility.yul\":426:427   */\n      0x00\n        /* \"#utility.yul\":415:424   */\n      dup4\n        /* \"#utility.yul\":411:428   */\n      add\n        /* \"#utility.yul\":402:408   */\n      dup5\n        /* \"#utility.yul\":358:429   */\n      tag_38\n      jump\t// in\n    tag_47:\n        /* \"#utility.yul\":214:436   */\n      swap3\n      swap2\n      pop\n      pop\n      jump\t// out\n        /* \"#utility.yul\":442:611   */\n    tag_39:\n        /* \"#utility.yul\":526:537   */\n      0x00\n        /* \"#utility.yul\":560:566   */\n      dup3\n        /* \"#utility.yul\":555:558   */\n      dup3\n        /* \"#utility.yul\":548:567   */\n      mstore\n        /* \"#utility.yul\":600:604   */\n      0x20\n        /* \"#utility.yul\":595:598   */\n      dup3\n        /* \"#utility.yul\":591:605   */\n      add\n        /* \"#utility.yul\":576:605   */\n      swap1\n      pop\n        /* \"#utility.yul\":442:611   */\n      swap3\n      swap2\n      pop\n      pop\n      jump\t// out\n        /* \"#utility.yul\":617:783   */\n    tag_40:\n        /* \"#utility.yul\":757:775   */\n      0x54727565206973206e6f74207472756500000000000000000000000000000000\n        /* \"#utility.yul\":753:754   */\n      0x00\n        /* \"#utility.yul\":745:751   */\n      dup3\n        /* \"#utility.yul\":741:755   */\n      add\n        /* \"#utility.yul\":734:776   */\n      mstore\n        /* \"#utility.yul\":617:783   */\n      pop\n      jump\t// out\n        /* \"#utility.yul\":789:1155   */\n    tag_41:\n        /* \"#utility.yul\":931:934   */\n      0x00\n        /* \"#utility.yul\":952:1019   */\n      tag_51\n        /* \"#utility.yul\":1016:1018   */\n      0x10\n        /* \"#utility.yul\":1011:1014   */\n      dup4\n        /* \"#utility.yul\":952:1019   */\n      tag_39\n      jump\t// in\n    tag_51:\n        /* \"#utility.yul\":945:1019   */\n      swap2\n      pop\n        /* \"#utility.yul\":1028:1121   */\n      tag_52\n        /* \"#utility.yul\":1117:1120   */\n      dup3\n        /* \"#utility.yul\":1028:1121   */\n      tag_40\n      jump\t// in\n    tag_52:\n        /* \"#utility.yul\":1146:1148   */\n      0x20\n        /* \"#utility.yul\":1141:1144   */\n      dup3\n        /* \"#utility.yul\":1137:1149   */\n      add\n        /* \"#utility.yul\":1130:1149   */\n      swap1\n      pop\n        /* \"#utility.yul\":789:1155   */\n      swap2\n      swap1\n      pop\n      jump\t// out\n        /* \"#utility.yul\":1161:1580   */\n    tag_23:\n        /* \"#utility.yul\":1327:1331   */\n      0x00\n        /* \"#utility.yul\":1365:1367   */\n      0x20\n        /* \"#utility.yul\":1354:1363   */\n      dup3\n        /* \"#utility.yul\":1350:1368   */\n      add\n        /* \"#utility.yul\":1342:1368   */\n      swap1\n      pop\n        /* \"#utility.yul\":1414:1423   */\n      dup2\n        /* \"#utility.yul\":1408:1412   */\n      dup2\n        /* \"#utility.yul\":1404:1424   */\n      sub\n        /* \"#utility.yul\":1400:1401   */\n      0x00\n        /* \"#utility.yul\":1389:1398   */\n      dup4\n        /* \"#utility.yul\":1385:1402   */\n      add\n        /* \"#utility.yul\":1378:1425   */\n      mstore\n        /* \"#utility.yul\":1442:1573   */\n      tag_54\n        /* \"#utility.yul\":1568:1572   */\n      dup2\n        /* \"#utility.yul\":1442:1573   */\n      tag_41\n      jump\t// in\n    tag_54:\n        /* \"#utility.yul\":1434:1573   */\n      swap1\n      pop\n        /* \"#utility.yul\":1161:1580   */\n      swap2\n      swap1\n      pop\n      jump\t// out\n\n    auxdata: 0xa2646970667358221220be542366506b4da79557cb893e6f9205ea7ccd0bc407d192ef5ce0564ed4a55564736f6c634300081e0033\n}\n",
				"bytecode": {
					"linkReferences": {},
					"object": "6080604052348015600e575f5ffd5b506102e58061001c5f395ff3fe608060405234801561000f575f5ffd5b506004361061004a575f3560e01c80639942ec6f1461004e578063aaf05f3d1461006c578063c27fc3051461008a578063c3f90202146100a8575b5f5ffd5b6100566100c6565b604051610063919061021e565b60405180910390f35b610074610116565b604051610081919061021e565b60405180910390f35b610092610166565b60405161009f919061021e565b60405180910390f35b6100b06101b6565b6040516100bd919061021e565b60405180910390f35b5f60011515600115151461010f576040517f08c379a000000000000000000000000000000000000000000000000000000000815260040161010690610291565b60405180910390fd5b6002905090565b5f60011515600115151461015f576040517f08c379a000000000000000000000000000000000000000000000000000000000815260040161015690610291565b60405180910390fd5b6003905090565b5f6001151560011515146101af576040517f08c379a00000000000000000000000000000000000000000000000000000000081526004016101a690610291565b60405180910390fd5b6001905090565b5f6001151560011515146101ff576040517f08c379a00000000000000000000000000000000000000000000000000000000081526004016101f690610291565b60405180910390fd5b6004905090565b5f819050919050565b61021881610206565b82525050565b5f6020820190506102315f83018461020f565b92915050565b5f82825260208201905092915050565b7f54727565206973206e6f742074727565000000000000000000000000000000005f82015250565b5f61027b601083610237565b915061028682610247565b602082019050919050565b5f6020820190508181035f8301526102a88161026f565b905091905056fea2646970667358221220be542366506b4da79557cb893e6f9205ea7ccd0bc407d192ef5ce0564ed4a55564736f6c634300081e0033",
					"opcodes": "PUSH1 0x80 PUSH1 0x40 MSTORE CALLVALUE DUP1 ISZERO PUSH1 0xE JUMPI PUSH0 PUSH0 REVERT JUMPDEST POP PUSH2 0x2E5 DUP1 PUSH2 0x1C PUSH0 CODECOPY PUSH0 RETURN INVALID PUSH1 0x80 PUSH1 0x40 MSTORE CALLVALUE DUP1 ISZERO PUSH2 0xF JUMPI PUSH0 PUSH0 REVERT JUMPDEST POP PUSH1 0x4 CALLDATASIZE LT PUSH2 0x4A JUMPI PUSH0 CALLDATALOAD PUSH1 0xE0 SHR DUP1 PUSH4 0x9942EC6F EQ PUSH2 0x4E JUMPI DUP1 PUSH4 0xAAF05F3D EQ PUSH2 0x6C JUMPI DUP1 PUSH4 0xC27FC305 EQ PUSH2 0x8A JUMPI DUP1 PUSH4 0xC3F90202 EQ PUSH2 0xA8 JUMPI JUMPDEST PUSH0 PUSH0 REVERT JUMPDEST PUSH2 0x56 PUSH2 0xC6 JUMP JUMPDEST PUSH1 0x40 MLOAD PUSH2 0x63 SWAP2 SWAP1 PUSH2 0x21E JUMP JUMPDEST PUSH1 0x40 MLOAD DUP1 SWAP2 SUB SWAP1 RETURN JUMPDEST PUSH2 0x74 PUSH2 0x116 JUMP JUMPDEST PUSH1 0x40 MLOAD PUSH2 0x81 SWAP2 SWAP1 PUSH2 0x21E JUMP JUMPDEST PUSH1 0x40 MLOAD DUP1 SWAP2 SUB SWAP1 RETURN JUMPDEST PUSH2 0x92 PUSH2 0x166 JUMP JUMPDEST PUSH1 0x40 MLOAD PUSH2 0x9F SWAP2 SWAP1 PUSH2 0x21E JUMP JUMPDEST PUSH1 0x40 MLOAD DUP1 SWAP2 SUB SWAP1 RETURN JUMPDEST PUSH2 0xB0 PUSH2 0x1B6 JUMP JUMPDEST PUSH1 0x40 MLOAD PUSH2 0xBD SWAP2 SWAP1 PUSH2 0x21E JUMP JUMPDEST PUSH1 0x40 MLOAD DUP1 SWAP2 SUB SWAP1 RETURN JUMPDEST PUSH0 PUSH1 0x1 ISZERO ISZERO PUSH1 0x1 ISZERO ISZERO EQ PUSH2 0x10F JUMPI PUSH1 0x40 MLOAD PUSH32 0x8C379A000000000000000000000000000000000000000000000000000000000 DUP2 MSTORE PUSH1 0x4 ADD PUSH2 0x106 SWAP1 PUSH2 0x291 JUMP JUMPDEST PUSH1 0x40 MLOAD DUP1 SWAP2 SUB SWAP1 REVERT JUMPDEST PUSH1 0x2 SWAP1 POP SWAP1 JUMP JUMPDEST PUSH0 PUSH1 0x1 ISZERO ISZERO PUSH1 0x1 ISZERO ISZERO EQ PUSH2 0x15F JUMPI PUSH1 0x40 MLOAD PUSH32 0x8C379A000000000000000000000000000000000000000000000000000000000 DUP2 MSTORE PUSH1 0x4 ADD PUSH2 0x156 SWAP1 PUSH2 0x291 JUMP JUMPDEST PUSH1 0x40 MLOAD DUP1 SWAP2 SUB SWAP1 REVERT JUMPDEST PUSH1 0x3 SWAP1 POP SWAP1 JUMP JUMPDEST PUSH0 PUSH1 0x1 ISZERO ISZERO PUSH1 0x1 ISZERO ISZERO EQ PUSH2 0x1AF JUMPI PUSH1 0x40 MLOAD PUSH32 0x8C379A000000000000000000000000000000000000000000000000000000000 DUP2 MSTORE PUSH1 0x4 ADD PUSH2 0x1A6 SWAP1 PUSH2 0x291 JUMP JUMPDEST PUSH1 0x40 MLOAD DUP1 SWAP2 SUB SWAP1 REVERT JUMPDEST PUSH1 0x1 SWAP1 POP SWAP1 JUMP JUMPDEST PUSH0 PUSH1 0x1 ISZERO ISZERO PUSH1 0x1 ISZERO ISZERO EQ PUSH2 0x1FF JUMPI PUSH1 0x40 MLOAD PUSH32 0x8C379A000000000000000000000000000000000000000000000000000000000 DUP2 MSTORE PUSH1 0x4 ADD PUSH2 0x1F6 SWAP1 PUSH2 0x291 JUMP JUMPDEST PUSH1 0x40 MLOAD DUP1 SWAP2 SUB SWAP1 REVERT JUMPDEST PUSH1 0x4 SWAP1 POP SWAP1 JUMP JUMPDEST PUSH0 DUP2 SWAP1 POP SWAP2 SWAP1 POP JUMP JUMPDEST PUSH2 0x218 DUP2 PUSH2 0x206 JUMP JUMPDEST DUP3 MSTORE POP POP JUMP JUMPDEST PUSH0 PUSH1 0x20 DUP3 ADD SWAP1 POP PUSH2 0x231 PUSH0 DUP4 ADD DUP5 PUSH2 0x20F JUMP JUMPDEST SWAP3 SWAP2 POP POP JUMP JUMPDEST PUSH0 DUP3 DUP3 MSTORE PUSH1 0x20 DUP3 ADD SWAP1 POP SWAP3 SWAP2 POP POP JUMP JUMPDEST PUSH32 0x54727565206973206E6F74207472756500000000000000000000000000000000 PUSH0 DUP3 ADD MSTORE POP JUMP JUMPDEST PUSH0 PUSH2 0x27B PUSH1 0x10 DUP4 PUSH2 0x237 JUMP JUMPDEST SWAP2 POP PUSH2 0x286 DUP3 PUSH2 0x247 JUMP JUMPDEST PUSH1 0x20 DUP3 ADD SWAP1 POP SWAP2 SWAP1 POP JUMP JUMPDEST PUSH0 PUSH1 0x20 DUP3 ADD SWAP1 POP DUP2 DUP2 SUB PUSH0 DUP4 ADD MSTORE PUSH2 0x2A8 DUP2 PUSH2 0x26F JUMP JUMPDEST SWAP1 POP SWAP2 SWAP1 POP JUMP INVALID LOG2 PUSH5 0x6970667358 0x22 SLT KECCAK256 0xBE SLOAD 0x23 PUSH7 0x506B4DA79557CB DUP10 RETURNDATACOPY PUSH16 0x9205EA7CCD0BC407D192EF5CE0564ED4 0xA5 SSTORE PUSH5 0x736F6C6343 STOP ADDMOD 0x1E STOP CALLER "
				},
				"gasEstimates": {
					"creation": {
						"codeDepositCost": "148200",
						"executionCost": "194",
						"totalCost": "148394"
					},
					"external": {
						"f1()": "389",
						"f2()": "345",
						"f3()": "367",
						"f4()": "411"
					}
				},
				"methodIdentifiers": {
					"f1()": "c27fc305",
					"f2()": "9942ec6f",
					"f3()": "aaf05f3d",
					"f4()": "c3f90202"
				}
			},
			"storageLayout": {
				"storage": [],
				"types": null
			},
			"userdoc": {
				"kind": "user",
				"methods": {},
				"version": 1
			}
		}
	}
}